:020000040800F2
:100000004806002045010008150600086F04000896
:10001000110600081D020008BF0B000800000000C8
:100020000000000000000000000000000D080008B3
:100030002102000800000000D1060008F9080008AD
:100040005F0100085F0100085F0100085F01000810
:100050005F0100085F0100085F0100085F01000800
:100060005F0100085F0100085F0100085F010008F0
:100070005F0100085F0100085F0100085F010008E0
:100080005F0100085F0100085F0100085F010008D0
:100090005F0100085F0100085F0100085F010008C0
:1000A0005F0100085F0100085F0100085F010008B0
:1000B0005F0100085F0100085F0100085F010008A0
:1000C0005F0100085F0100085F0100085F01000890
:1000D0005F01000891090008950900085F01000808
:1000E0005F0100085F0100085F0100085F01000870
:1000F0005F0100085F0100085F0100085F01000860
:100100005F0100085F0100085F0100085F0100084F
:100110005F0100085F0100085F0100085F0100083F
:100120005F0100085F0100085F0100085F0100082F
:10013000DFF80CD000F03EF800480047550C0008EE
:10014000480600200648804706480047FEE7FEE7CD
:10015000FEE7FEE7FEE7FEE7FEE7FEE7FEE7FEE777
:100160003109000831010008D2B201E000F8012B8A
:10017000491EFBD270470022F6E710B513460A4627
:1001800004461946FFF7F0FF204610BD421C10F848
:10019000011B0029FBD1801A704730B504460020AE
:1001A000034600E05B1C934203D2E05CCD5C401B45
:1001B000F8D030BD064C074D06E0E06840F0010382
:1001C00094E8070098471034AC42F6D3FFF7B4FF29
:1001D000140F0008340F00082DE9F04106460E48C0
:1001E0000468002513E03046FFF7D0FF07463A4683
:1001F00021463046FFF7D1FF30B93046FFF7C6FF42
:1002000004442046BDE8F081641C681C85B2B5F545
:10021000807FE8DD0020F5E70000002000BFFEE75A
:100220007047000008B501211D4800F0CBF84FF4DD
:100230000070ADF8000018208DF8030003208DF841
:1002400002006946174800F031F84FF48060ADF8BD
:10025000000048208DF8030003208DF80200694655
:10026000104800F023F84FF40770ADF800000320A9
:100270008DF8020010208DF8030069460A4800F04E
:1002800015F84FF48050ADF8000003208DF80200FF
:1002900010208DF803006946024800F007F808BDF9
:1002A0000002300000080140000C01402DE9F0413F
:1002B000024600250026002000230024002791F894
:1002C00003C00CF00F0591F803C00CF0100CBCF14A
:1002D000000F03D091F802C04CEA050591F800C068
:1002E000BCF1000F31D0146800202BE04FF0010C5E
:1002F0000CFA00F3B1F800C00CEA03069E4220D1CC
:1003000083004FF00F0C0CFA03F7BC4305FA03FC13
:100310004CEA040491F803C0BCF1280F06D14FF059
:10032000010C0CFA00FCC2F814C00AE091F803C0FA
:10033000BCF1480F05D14FF0010C0CFA00FCC2F8DB
:1003400010C0401C0828D1D31460B1F800C0BCF123
:10035000FF0F34DD546800202EE000F1080C4FF050
:10036000010808FA0CF3B1F800C00CEA03069E423B
:1003700021D183004FF00F0C0CFA03F7BC4305FAB0
:1003800003FC4CEA040491F803C0BCF1280F05D12A
:1003900000F1080C08FA0CF8C2F8148091F803C0B8
:1003A000BCF1480F07D100F1080C4FF0010808FA22
:1003B0000CF8C2F81080401C0828CED35460BDE869
:1003C000F0810000F0B50A4600230024002100253A
:1003D00000F00046B6F1004F02D11D4EF16901E078
:1003E0001B4E7168C0F3034583B200F44016B6F5A6
:1003F000401F08D121F07061154E766826F07066B6
:10040000134F7E6012E000F48016B6F5801F06D10F
:10041000032606FA05F4A14341F0706106E0460D9B
:10042000360103FA06F6B14341F0706122B1460D80
:10043000360103FA06F6314300F00046B6F1004FEC
:1004400002D1034EF16101E0014E7160F0BD000088
:10045000000001400246002093680B400BB10120D0
:1004600000E000207047416170470161704700BFA4
:10047000FEE7000008B501210C2000F03BF9042044
:10048000ADF8000018208DF8030003208DF802005D
:1004900069461648FFF70AFF0820ADF8000004205F
:1004A0008DF8030003208DF8020069460F48FFF71E
:1004B000FDFE4FF48070ADF8000048208DF8030079
:1004C00003208DF8020069460948FFF7EFFE4FF45C
:1004D0000070ADF8000010208DF8030003208DF8A7
:1004E000020069460248FFF7E1FE08BD000801402E
:1004F000000C014070B5002400260025FFF7BAFF6C
:1005000000F04EF800F0D4F800BF641C4FF4807186
:100510001148FFF79FFFA0B94FF400710E48FFF795
:10052000A2FF4FF4967000F089FB4FF400710A4867
:10053000FFF79BFF41F2883000F080FB07A000F03E
:1005400011F80DB9032CE0D34FF400710248FFF706
:100550008AFF284670BD0000000C01404154490D3F
:100560000A00000070B50446002512E0002521783D
:100570000A4800F020FB641C04E06D1CB5F5FA6F1E
:1005800000D905E04021054800F072FA0028F4D0B7
:1005900000BF20780028E9D170BD00000044004071
:1005A0001FB500240121084600F0A4F801214804E9
:1005B00000F090F84FF4165000900020ADF80400C1
:1005C000ADF80600ADF80800ADF80C000C20ADF851
:1005D0000A0069460D4800F07DFA012240F22551DB
:1005E0000A4800F052FA0121084800F00DFA04E030
:1005F000641CB4F5FA6F00D905E08021034800F0CF
:1006000037FA0028F4D000BF1FBD000000440040AE
:1006100000BFFEE77047000070B5002100230F22E5
:10062000C47804B3154C246804F4E064C4F5E064B1
:10063000210AC1F10403CA40447804FA03F1847822
:100640001440214309010E4C0678A155047804F0AA
:100650001F050124AC4005786D11AD0005F1E025C2
:10066000C5F8004109E0047804F01F050124AC40FE
:10067000044D0678761145F8264070BD0CED00E07B
:1006800000E400E080E100E010B5002807DA0A0786
:10069000140E054A00F00F031B1FD45403E00A0791
:1006A000130E024A135410BD18ED00E000E400E000
:1006B00008B526208DF8000000208DF801000120EB
:1006C0008DF802008DF803006846FFF7A5FF08BD0E
:1006D0007047000029B1064AD2690243044BDA612F
:1006E00004E0034AD2698243014BDA61704700009B
:1006F0000010024029B1064A92690243044B9A61F4
:1007000004E0034A92698243014B9A6170470000FA
:100710000010024010B501210846FFF7EBFF012150
:100720000420FFF7E7FF01210820FFF7E3FF012185
:100730008803FFF7DFFF10BD30B500210022002441
:1007400000232D4D6D6805F00C0121B1042905D061
:10075000082923D105E0294D056022E0274D0560D9
:100760001FE0254D6D6805F47012234D6D6805F48A
:100770008034022505EB92421CB9214D554305609A
:100780000BE01D4D6D6805F400351DB11C4D554342
:10079000056002E0194D5543056002E0174D056004
:1007A00000BF00BF144D6D6805F0F0010909154D3B
:1007B0006B5C0568DD4045600F4D6D6805F4E061D8
:1007C000090A104D6B5C4568DD4085600A4D6D6817
:1007D00005F46051C90A0B4D6B5C4568DD40C5608E
:1007E000054D6D6805F44041890B074D6B5CC5688C
:1007F000B5FBF3F5056130BD0010024000127A0030
:1008000000093D001400002024000020704710B5AE
:1008100000F002F810BD00000CB50020019000901F
:100820003348006840F480303149086000BF3048E8
:10083000006800F4003000900198401C019000987E
:1008400018B90198B0F5A06FF1D12948006800F4FB
:10085000003010B10120009001E0002000900098CD
:10086000012843D12348006840F010002149086066
:100870000846006820F0030008600846006840F061
:10088000020008601A4840681949486008464068F4
:1008900048600846406840F4806048600846406808
:1008A00020F47C1048600846406840F4E810486036
:1008B0000846006840F08070086000BF0C4800687F
:1008C00000F000700028F9D00948406820F00300CB
:1008D000074948600846406840F00200486000BF91
:1008E0000348406800F00C000828F9D10CBD000056
:1008F00000100240002002404FF0E020006900F4A8
:10090000803080B10848006828B107480068401E60
:100910000549086002E000200349086003480068B8
:10092000401C024908607047100000200C000020A5
:1009300010B51348006840F00100114908600846EE
:100940004068104908400E494860084600680E4952
:1009500008400B4908600846006820F480200860C1
:100960000846406820F4FE0048604FF41F0088608D
:10097000FFF74DFF4FF000600449086010BD000014
:10098000001002400000FFF8FFFFF6FE08ED00E057
:100990007047000010B52021174800F069F80128C1
:1009A00029D1154800F002F914490968144AB2F92E
:1009B00000208854114800681149B1F90010405CCA
:1009C000C8B10E4800680E49B1F90010405C4B28D0
:1009D0000BD10B48B0F90000401E08490968085CBB
:1009E0004F2802D101200749087005480088401CA3
:1009F00000B20349088010BD004400400000002000
:100A0000040000200600002021B1828942F4005237
:100A1000828104E082894DF6FF731A40828170471B
:100A20001FB54FF4165000900020ADF80400ADF84B
:100A30000600ADF80800ADF80C000C20ADF80A0077
:100A400069460A4800F046F801210848FFF7DCFF34
:100A5000012240F22551054800F017F800BF80211F
:100A6000024800F005F80028F9D01FBD0038014009
:100A700002460020B1F5007F00D100BF13880B4073
:100A80000BB1012000E000207047F0B503460024C0
:100A900000260025002040F66A17B94200D100BFA9
:100AA0001846C1F3421401F01F06012707FA06F5A4
:100AB000012C01D10C3004E0022C01D1103000E0F7
:100AC00014301AB107682F43076002E00768AF438C
:100AD0000760F0BD2DE9F04786B005460E460024BC
:100AE000A24600BFA1460027B08900B100BF2F4633
:100AF0002C8A4CF6FF700440F08804432C82AC89A9
:100B00004EF6F3100440B0883189084371890843D8
:100B10000443AC81AC8A4FF6FF400440B0890443E3
:100B2000AC8201A8FFF708FE1F48874202D1DDF81A
:100B300010A001E0DDF80CA0A88900F4004040B14D
:100B40000AEBCA0000EB0A1031684900B0FBF1F86B
:100B500007E00AEBCA0000EB0A1031688900B0FB1D
:100B6000F1F86420B8FBF0F004012009642101FBD6
:100B70001089A88900F4004040B1322000EBC90080
:100B8000B0FBF1F000F00700044308E0322000EB76
:100B900009106421B0FBF1F000F00F0004432C8138
:100BA00006B0BDE8F08700000038014001468888A3
:100BB000C0F308007047C1F308028280704700BF8D
:100BC000FEE702E008C8121F08C1002AFAD17047E8
:100BD0007047002001E001C1121F002AFBD17047BD
:100BE00010B50020124908601249086012480068D8
:100BF0004FF47A71B0FBF1F4B4F1807F00D311E0CF
:100C000024F07F40401E4FF0E02148610F214FF05B
:100C1000FF30FFF739FD00204FF0E0218861072009
:100C2000086100BF0F214FF0FF30FFF72DFD10BD11
:100C3000100000200C00002028000020044908605B
:100C400000E030BF024909680029FAD1704700006E
:100C50001000002010B54FF4807000F007F95B49D8
:100C60000860402000F002F9594908604FF4807193
:100C700056480068FFF77FFAFFF74CFDFFF7D2FAFE
:100C8000FFF7CEFE08215348FFF7EDFBFFF7A8FF63
:100C90004FF480515048FFF7E8FBFFF72BFC00BFF3
:100CA0004E4800780128FBD100204C4908704FF4D1
:100CB000807146480068FFF75EFA002048490880C6
:100CC00048A000F009F94FA000F006F954A0FFF782
:100CD00049FC00BF414800780128FBD13B4800682F
:100CE00000F0FAF850A000F0F7F800203B49087037
:100CF0004FF4807135480068FFF73DFA002038490D
:100D0000088052A0FFF72EFC00BF3448007801286D
:100D1000FBD12E48006800F0DFF843A000F0DCF8BB
:100D20004CA0FFF759FA04000DD0002007E0215C29
:100D30000A2902D10021215404E0411CC8B2B0F5B7
:100D4000807FF4DD00BF204600F0C6F80020234974
:100D500008704FF480711D480068FFF70CFA0020FE
:100D60001F4908803EA0FFF7FDFB00BF1B4800782D
:100D70000128FBD11548006800F0AEF82AA000F069
:100D8000ABF8002433A0FFF727FA04000DD00020B1
:100D900007E0215C0A2902D10021215404E0411C12
:100DA000C8B2B0F5807FF4DD00BF204600F094F8B3
:100DB00000200A4908704FF4807104480068FFF76A
:100DC000DAF900200649088010BD0000000000206C
:100DD00008000020000C014000080140060000202F
:100DE00004000020544845204D32362053544152CF
:100DF00054205355434345535346554C4C59210AAF
:100E000000000000506C6561736520696E70757438
:100E10002041544920636F64652E2E2E0A00000085
:100E200041540D0A000000003D3D3D3D3D3D3D3D2E
:100E30003D3D3D3D3D3D3D3D3D3D3D3D3D3D3D3DE2
:100E40003D3D3D3D3D3D3D0A000000004154490D02
:100E50000A0000005265766973696F6E3A000000FF
:100E600041542B43474D490D0A000000F0B50B30AB
:100E7000154D20F007010024144A0FE003688B424F
:100E80000BD38B4205D95E1A43184768C3E9006744
:100E900000E04368136002C004E0021D10680028EF
:100EA000ECD12046002802D1286808B10020F0BD0E
:100EB000064A07481060074A121A22F00702C0E9E2
:100EC000002401202860D7E7400000203C000020DB
:100ED0004C0000204802002070B5044613E00025B5
:100EE00021780B48FFF767FE641C04E06D1CB5F524
:100EF000FA6F00DD05E040210548FFF7B9FD012844
:100F0000F4D100BF00BF20780028E8D170BD0000F8
:100F100000380140340F00080000002044000000A9
:100F2000C20B0008780F00084400002004060000EF
:100F3000D20B0008000000000000000000000000CC
:100F40000000000000000000000000000102030497
:100F500001020304060708090204060800A24A0465
:100F60000000000000000000010203040607080959
:080F7000000000000000000079
:0400000508000131BD
:00000001FF
